:020000021000EC
:1000000000000220116901004769010049690100EF
:100010004B6901004D6901004F690100456901000C
:10002000456901004569010045690100B9E8010021
:100030005369010045690100F1EA0100D1A1010005
:100040002102020011A201005D69010085A20100E8
:1000500079A201009D0E010063690100676901003A
:100060006969010091A201009DA2010039A201006D
:10007000716901007369010075690100E5A2010061
:10008000D9A201007B690100B5A20100A9A201006B
:100090006DA2010061A20100CDA20100C1A2010078
:1000A000896901008B6901008D6901008F69010078
:1000B0009169010093690100F1A2010097690100B3
:1000C000996901009B6901009D6901009F69010018
:1000D000A1690100A3690100A569010000000000F9
:1000E0000000000000000000000000000000000010
:1000F0000000000000000000000000000000000000
:1001000010B5054C237833B9044810B10448AFF357
:1001100000800121217010BD0010002000000000AF
:10012000F432040008B5064B1BB106480649AFF38C
:1001300000800648016811B1054A02B1904708BD28
:1001400000000000F432040004100020E00F002042
:1001500000000000154B002B08BF134B9D46A3F574
:10016000803A00218B460F461348144A121A25F094
:1001700053FE0F4B002B00D098470E4B002B00D0A6
:1001800098470020002104460D4600200C4900221B
:10019000002325F00FF825F061F92046294601F0EB
:1001A0003BFA25F061F800BF0000080000000220C3
:1001B00000000000000000000010002004240120C6
:1001C0005553030080B485B000AF78604FF0000352
:1001D000FB6041F21C03C2F200037A681A6041F22C
:1001E0001C03C2F200031B68002B04D141F203037D
:1001F000C9F60113FB60FB68184607F11407BD46FA
:1002000080BC704780B582B000AF7860396041F241
:100210001C03C2F200031B68002B07D041F21C0331
:10022000C2F200031B68786839689847FEE700BF90
:1002300080B483B000AF78604FF00003184607F138
:100240000C07BD4680BC704780B483B000AF7860B7
:10025000FEE700BF80B483B000AF786039603B68D0
:100260004FF400525A604FF00003184607F10C0794
:10027000BD4680BC704700BF80B483B000AF7860DB
:100280004FF00103184607F10C07BD4680BC7047CC
:1002900080B485B000AFF860B9607A604FF00003B9
:1002A000184607F11407BD4680BC704780B586B07C
:1002B00000AFF860B9607A604FF000037B6112E034
:1002C00008F096FC38613B69B3F1FF3F18D03B69F9
:1002D000DAB2BB681A70BB6803F10103BB607B69CB
:1002E00003F101037B617B68002B0CBF002301231A
:1002F000DBB27A6802F1FF327A60002BE0D100E0D5
:1003000000BF7B69002B02DC4FF0FF3300E07B690C
:10031000184607F11807BD4680BD00BF90B585B0EF
:1003200000AF786041F22003C2F200031B68002B8B
:1003300008D141F22003C2F2000342F20842C2F2A5
:1003400001021A6041F22003C2F200031B68FB6045
:1003500041F22003C2F200031A687B68D218EFF35F
:10036000088423469A4216D940F27853C2F2000319
:100370001B689B68184624F087FF0346184641F225
:100380003051C0F204014FF0190200F017F84FF09D
:10039000010024F069FF41F22003C2F200031A6851
:1003A0007B68D21841F22003C2F200031A60FB6896
:1003B000184607F11407BD4690BD00BF80B584B054
:1003C00000AFF860B9607A60B868796808F098FBA7
:1003D0007B68184607F11007BD4680BD80B400AFAA
:1003E000BFF34F8F4FF46D42CEF200024FF46D43D6
:1003F000CEF20003DB6803F4E0614FF00403C0F2C7
:10040000FA530B43D360BFF34F8FFEE780B500AFC5
:1004100011F02EFCFFF7E2FF80BD00BF80B584B075
:1004200000AF7860396041F20703C9F60313FB603F
:1004300041F26803C2F200031B68002B12D041F2A4
:100440006803C2F200031A6841F26403C2F20003B7
:100450001B7841F22400C2F20000194690474FF089
:100460000003FB60FB68184607F11007BD4680BD1E
:1004700080B582B000AF4FF000037B604FF0FF0308
:10048000FB7040F2B140C0F2010008F0C3FB03462C
:10049000FB7097F90330002B04D04FF00103C9F62D
:1004A00003137B607B68184607F10807BD4680BDD3
:1004B00090B58DB002AF78600B46FB704FF0000333
:1004C0007B624FF0010387F823307B68002B76D0E6
:1004D000FB78002B73D0FB7841F22400C2F20000BD
:1004E00079681A4625F012FB41F26403C2F2000358
:1004F000FA781A70786841F24C51C0F2040125F084
:1005000003FF0346002B29D14FF06203FB7341F236
:100510006053C0F2040307F1100493E8070084E875
:10052000070007F10F03009340F29800C2F20000A9
:1005300007F110030ECB1FF019FCF861FB69002BCB
:1005400039D140F29800C2F200001FF05BFBF86165
:10055000FB69002B2FD1FFF759FF2CE0786841F29F
:100560005851C0F2040125F0CFFE0346002B02D102
:10057000FFF74CFF1FE04FF00003BB6007F10803DB
:1005800040F21D40C0F201004FF000014FF00002A8
:100590000DF0F2FE034687F8233097F92330012B44
:1005A00009D1BB68002B06D04EF60453CEF20003EF
:1005B0004FF080521A604FF000037B6204E042F279
:1005C0004103C9F603137B6297F92330012B04D052
:1005D00042F24203C9F603137B627B6A184607F1B5
:1005E0002C07BD4690BD00BF80B483B000AF7860DB
:1005F0007B684FEA1363184607F10C07BD4680BCC1
:10060000704700BF80B483B000AF78607B684FEA6A
:100610001343DBB2184607F10C07BD4680BC704798
:1006200080B483B000AF78607B684FEA1333DBB2ED
:1006300003F00F03DBB2184607F10C07BD4680BC80
:10064000704700BF80B483B000AF78607B684FEA2A
:1006500003534FEA1353184607F10C07BD4680BCFD
:10066000704700BF90B591B002AF78604FF00003C3
:10067000FB734FF000037B634FF00303BB7341F246
:100680006C53C0F2040307F1100493E8070084E8F8
:10069000070007F10E03009340F29800C2F2000039
:1006A00007F110030ECB1FF061FB78637B6B002B0F
:1006B00006D140F29800C2F200001FF0A3FA78635E
:1006C0007B6B002B16D141F26C53C0F2040307F18F
:1006D0001C0493E8070084E8070007F10F03009368
:1006E00040F29800C2F2000007F11C030ECB1FF08D
:1006F0001DFB78637B6B002B23D1FB7B03F0020394
:10070000002B19D041F27853C0F2040307F12804FA
:1007100093E8070084E807007B6800934FF0060326
:10072000019340F29800C2F2000007F128030ECBBB
:100730001FF0B8F9786304E042F24103C9F60213EE
:100740007B637B6B184607F13C07BD4690BD00BF3D
:1007500080B500AF0DF006F90346012B01D00EF075
:10076000E9F980BD80B588B002AF78600B46FB70B8
:10077000FB7883F00103DBB2002B68D07868FFF7C9
:1007800033FF78617868FFF75DFF38617868FFF7BD
:1007900039FFF8607868FFF743FF0346FB727B6917
:1007A0000A2B15D1FB7A012B07D141F28450C0F2FC
:1007B00004003969FA6825F0C9FBFB7A022B07D1DE
:1007C00041F2CC50C0F204003969FA6825F0BEFB52
:1007D0007B691A2B15D1FB7A012B07D141F21460EA
:1007E000C0F204003969FA6825F0B0FBFB7A022BED
:1007F00007D141F25C60C0F204003969FA6825F063
:10080000A5FB7B69072B16D1FB7A012B07D141F29F
:10081000A060C0F204003969FA6825F097FBFB7A02
:10082000022B14D141F2F060C0F204003969FA6879
:1008300025F08CFB0BE0FB7AFA68009241F23C70E9
:10084000C0F2040079691A463B6925F07FFB07F185
:100850001807BD4680BD00BF80B584B000AF78608A
:1008600039604FF00003FB604FF0020007F0C8FE54
:10087000F86041F28C70C0F2040039687A6825F0A3
:1008800065FBFB68002B05D041F2B870C0F2040094
:1008900025F05CFB07F11007BD4680BD80B58CB02C
:1008A00000AF4FF00003FB624FF000033B734FF0CB
:1008B00000037B734FF00003BB734FF00003FB7327
:1008C0004FF000033B744FF000037B744FF00003C4
:1008D0003B714FF000037B714FF00003BB714FF091
:1008E0000003FB714FF000033B724FF000037B727B
:1008F0004FF000024FF00003C7E908234FF0000358
:10090000BB614FF000037B6140F25170C0F2010007
:100910004FF0000108F038FBFB6A002B06D140F6CF
:100920005900C0F20100FFF74DFCF862FB6A002B92
:1009300004D1B869796908F03DFBF862FB6A002BC5
:1009400002D1FFF795FDF862FB6A002B02D107F098
:1009500035FDF862FB6A002B02D107F085FDF862D5
:10096000FB6A002B06D140F29800C2F200001FF093
:1009700047F8F862FB6A002B2ED107F10C031846EA
:10098000FFF770FEF8624FF00003FB7713E0FB7F88
:100990006FEA030303F10603FA7F07F130018A18B7
:1009A00012F8242C07F13001CB1803F82C2CFB7F14
:1009B00003F10103FB77FB7F052BE8D907F1040363
:1009C000D3E900014FF0FF324FF6FF7302EA000255
:1009D00003EA0103C7E90823D7E9080120F052FC24
:1009E000F862FB6A184607F13007BD4680BD00BFBC
:1009F00080B584B000AF786039604FF00003FB60D1
:100A00007B6841F2D870C0F2040039681A4625F0BC
:100A10009DFA4FF003004FF0020107F043FDF8602C
:100A2000FB68002B06D14FF002004FF0020107F0E7
:100A300039FDF860FB68002B06D14FF001004FF044
:100A4000010107F02FFDF860FEE700BF80B500AFA1
:100A500041F62000C0F2040025F0C2FAFEE700BF14
:100A600080B400AF72B641F62843C2F201031B689E
:100A7000B3F1FF3F0BD041F62843C2F201031B68DC
:100A800003F1010241F62843C2F201031A6041F664
:100A90002843C2F201031B681846BD4680BC70475C
:100AA00080B483B000AF41F62843C2F201031B6853
:100AB000002B17D041F62843C2F201031B6803F153
:100AC000FF3241F62843C2F201031A6041F628437F
:100AD000C2F201031B687B607B68002B00D162B609
:100AE0007B6801E04FF00003184607F10C07BD4694
:100AF00080BC704780B483B000AF0346FB714FF4F5
:100B00008043C4F20C03FA794FEA821242F02002C9
:100B100003F5703303F110031A6000BF4FF48043F4
:100B2000C4F20C0303F5703303F110031B6803F0E8
:100B30002003002BF2D107F10C07BD4680BC7047A3
:100B400080B483B000AF4FF48043C4F20C0303F5CC
:100B5000703303F114031B687B604FF48043C4F2CD
:100B60000C0303F5703303F118031B687A68134014
:100B70007B607B68184607F10C07BD4680BC704758
:100B800080B485B000AF78604FF48043C4F20C03AA
:100B900003F5703303F118034FF000021A604FF4AD
:100BA0008043C4F20C0303F5703303F114034FF0D8
:100BB000FF321A604FF46053C8F20C03FB607B688D
:100BC0001B6B1B69002B03D0FB6843F00803FB6021
:100BD0004FF48043C4F20C0303F5703303F11803A0
:100BE000FA681A6007F11407BD4680BC704700BF61
:100BF00080B483B000AF78604FF48043C4F20C033C
:100C00004FF48042C4F20C0202F5723202F1040287
:100C1000126822F4F06242F4807203F5723303F139
:100C200004031A604FF48043C4F20C034FF4804273
:100C3000C4F20C0202F5723202F54072126822F020
:100C40003C417A680A4342F0044203F5723303F5EB
:100C500040731A6007F10C07BD4680BC704700BFA7
:100C600080B483B000AF4FF48043C4F20C0303F5AB
:100C7000723303F118031B687B604FF48043C4F2A6
:100C80000C0303F5723303F11C031B687A681340ED
:100C90007B607B684FEA03434FEA1343184607F132
:100CA0000C07BD4680BC704780B483B000AF4FF4E2
:100CB0008043C4F20C0303F5723303F118031B687D
:100CC0007B604FF48043C4F20C0303F5723303F1ED
:100CD0001C031B687A6813407B607B684FEA1343F0
:100CE000184607F10C07BD4680BC704780B485B03C
:100CF00000AF78604FF48043C4F20C0303F5723305
:100D000003F110031B68FB607B689B784FEA43127A
:100D10004FF41063C4F21003D3189B68BB60BA6829
:100D2000FB681340184607F11407BD4680BC7047A6
:100D300080B485B000AF78607B689B784FEA43123F
:100D40004FF43063C4F21003D3189B68FB604FF478
:100D50008043C4F20C0303F5723303F114031B68E0
:100D6000FA681340FB60FB68184607F11407BD469C
:100D700080BC704780B483B000AF78607B684FF070
:100D8000000283F834204FF48043C4F20C0303F5CF
:100D9000723303F544734FF0C0421A607B6803F16D
:100DA00004027B681A604FF48043C4F20C037A6833
:100DB000126803F5723303F545731A604FF48043EC
:100DC000C4F20C034FF48042C4F20C0202F57232FA
:100DD00002F54072126822F03C417A68D2F8F420A1
:100DE0000A4342F0044203F5723303F540731A607C
:100DF00007F10C07BD4680BC704700BF80B485B0CA
:100E000000AF0346FB714FF00003BB60FB795BB2A0
:100E1000002B0CDA40F2F803C2F200031A68FB79E7
:100E200003F00F03D31893F8D430FB600BE040F2CB
:100E3000F803C2F200031A68FB7903F00F03D3181A
:100E400093F8E430FB60FB68002B12D040F2F8030B
:100E5000C2F200031968FA6813464FEA83039B182D
:100E60004FEAC30303F13003CB1803F10403BB6063
:100E70000CE0FB7903F00F03002B07D140F2F803DD
:100E8000C2F200031B6803F13403BB60BB68184661
:100E900007F11407BD4680BC704700BF80B582B023
:100EA00000AF4FF00003FB70FFF7DAFD4FF4804313
:100EB000C4F20C039B68002B40D04FF48043C4F273
:100EC0000C031B6803F40033002B37D04FF480432E
:100ED000C4F20C039B6803F00103002B12D04FF403
:100EE0008043C4F20C034FF001021A614FF48043B7
:100EF000C4F20C035B6803F00103002B02D04FF037
:100F00000103FB704FF48043C4F20C039B6803F0B1
:100F10000203002B12D04FF48043C4F20C034FF0B5
:100F200002021A614FF48043C4F20C035B6803F0C1
:100F30000103002B02D14FF00103FB70FFF700FE0D
:100F400078607B68002B02D1FFF7AAFD57E07B6831
:100F500003F40003002B05D000F018FA7B6823F49B
:100F600000037B607B68002B05DA00F03DFB7B68AB
:100F700023F000437B607B6803F40063002B05D003
:100F800000F0FEFA7B6823F400637B607B6803F06B
:100F90000803002B05D000F019FA7B6823F0080342
:100FA0007B607B6803F40053002B05D000F02CF825
:100FB0007B6823F400537B607B6803F48053002B31
:100FC00005D000F035FA7B6823F480537B607B68A2
:100FD00003F48023002B05D000F034F87B6823F461
:100FE00080237B607B6803F40023002B05D000F096
:100FF000B5F87B6823F400237B60FFF751FD07F110
:101000000807BD4680BD00BF80B500AF40F2F803C1
:10101000C2F200031B68D3F8F4301846FFF7E8FD6E
:1010200040F2F803C2F200031B684FF0000283F89D
:10103000542040F2F803C2F200031B681846FFF781
:101040009FFD80BD80B584B000AFFFF709FE034669
:101050003B814FF00003FB604FF001037B8175E0A3
:101060003A897B8913409BB2002B67D0FB68DBB2C7
:1010700063F07F03DBB2DBB21846FFF7BFFE786098
:101080007868FFF733FE38603B6803F00103002BFC
:1010900054D0FB684FEA43124FF41063C4F21003BC
:1010A000D3184FF001029A60FB68002B28D17B68AF
:1010B0001A697B689B899A420ED97B681A697B689A
:1010C0009B89D21A7B681A617B685A697B689B8905
:1010D000D2187B685A610AE07B685A697B681B6991
:1010E000D2187B685A617B684FF000021A6140F2A7
:1010F000F803C2F200031B68184612F067FA1DE0FD
:101100007B681A69FB684FEA43114FF41063C4F21D
:101110001003CB181B6923F07F4323F47803D21A02
:101120007B685A617B681A697B685B69D21A7B6845
:101130001A617B68DB78184612F0C8FBFB6803F184
:101140000103FB607B894FEA43037B81FB68062B2D
:1011500086DD07F11007BD4680BD00BF80B586B0B3
:1011600000AFFFF7A1FD03467B814FF000037B61D9
:101170004FF001037B8200E17A897B8A13409BB2A6
:10118000002B00F0F2807B69DBB21846FFF736FED9
:1011900078607868FFF7CCFD38603B6803F00103A6
:1011A000002B54D07B694FEA43124FF43063C4F2F2
:1011B0001003D3184FF001029A607B69002B28D1ED
:1011C0007B681A697B689B899A420ED97B681A6989
:1011D0007B689B89D21A7B681A617B685A697B6835
:1011E0009B89D2187B685A610AE07B685A697B68E0
:1011F0001B69D2187B685A617B684FF000021A6144
:1012000040F2F803C2F200031B68184612F0DEF940
:101210001DE07B689A697B694FEA43114FF43063A4
:10122000C4F21003CB181B6923F07F4323F4780327
:10123000D21A7B685A617B681A697B685B69D21A2B
:101240007B681A617B68DB78184612F03FFB3B68CD
:1012500003F00803002B00F088804FF48043C4F2B1
:101260000C0303F5723303F542731B6803F040036C
:10127000002B1CD04FF48043C4F20C0303F57233EF
:1012800003F542734FF040021A6040F2F803C2F2D5
:1012900000031A684FF48043C4F20C0303F5723361
:1012A00003F545731B68A3F10803136026E04FF4B0
:1012B0008043C4F20C0303F5723303F544731B68D7
:1012C00003F0C0434FEA5373FB60FB68032B02D16A
:1012D0004FF00203FB6040F2F803C2F200031A6809
:1012E00040F2F803C2F200031968FB68C3F102037D
:1012F0004FEAC303CB1803F1040313604FF4804398
:10130000C4F20C034FF48042C4F20C0202F57232B4
:1013100002F54472126842F0C04203F5723303F5DD
:1013200044731A604FF48043C4F20C0340F2F80295
:10133000C2F20002126802F1040203F5723303F5EF
:1013400045731A604FF48043C4F20C0303F5723303
:1013500003F542734FF008021A6040F2F803C2F23C
:1013600000031B68184612F031F97B6903F1010391
:101370007B617B8A4FEA43037B827B69062B7FF785
:10138000FBAE07F11807BD4680BD00BF80B500AFBA
:101390004FF48043C4F20C0303F5703303F11403DC
:1013A0004FF400021A604FF48043C4F20C035B68F0
:1013B00003F00103002B04D04FF0030010F072FF84
:1013C00003E04FF0000010F06DFF80BD80B500AF6E
:1013D0004FF48043C4F20C0303F5703303F114039C
:1013E0004FF008021A6040F2F803C2F200031B68D3
:1013F0001B6B1B69002B19D040F2F803C2F20003EB
:101400001B681B6B1A694FF48043C4F20C0303F58D
:10141000723303F1080319684FF47F43C0F23F03AE
:101420000B404FEA13239BB21846904780BD00BF84
:1014300080B582B000AF4FF48043C4F20C034FF488
:101440008042C4F20C0202F5723202F10402126808
:1014500022F4F06222F0010203F5723303F1040377
:101460001A604FF00000FFF745FB4FF000037B6070
:101470000EE07B684FEA43124FF41063C4F210038E
:10148000D3184FF0FF329A607B6803F101037B6051
:101490007B68062BEDDD4FF000037B600EE07B6880
:1014A0004FEA43124FF43063C4F21003D3184FF0E5
:1014B000FF329A607B6803F101037B607B68062B37
:1014C000EDDD4FF48043C4F20C0303F5723303F1F6
:1014D0001C034FF001121A604FF48043C4F20C0356
:1014E00003F5723303F114034FF009021A604FF44D
:1014F0008043C4F20C0303F5723303F110034FF081
:1015000001021A604FF48043C4F20C034FF480428E
:10151000C4F20C0202F57232126822F4FE6203F584
:1015200072331A6040F2F803C2F200031B681846D7
:10153000FFF720FC40F2F803C2F200031B681846D4
:10154000FFF71EFB40F2F803C2F200031B681B6B9F
:101550001B68002B07D040F2F803C2F200031B689F
:101560001B6B1B6898474FF0030010F09BFE6FF059
:101570000A0011F053FE07F10807BD4680BD00BF09
:1015800080B582B000AF4FF48043C4F20C0303F582
:10159000703303F114034FF400621A606FF0090016
:1015A00011F03CFE10F06EFB0346002B03D14FF010
:1015B000020010F077FE10F065FB0346FB71FB792B
:1015C000022B08D0FB79032B05D0FB79042B02D02A
:1015D000FB79052B03D14FF0060010F063FE07F1F5
:1015E0000807BD4680BD00BF80B500AF4FF4804303
:1015F000C4F20C0303F5703303F114034FF00042FF
:101600001A6040F2F803C2F200031B6893F821301D
:10161000184610F047FE80BD80B584B002AF40F29E
:101620006570C0F201001CF043FD78607B68002B00
:1016300002D1FFF733F978607B68002B11D14FF0AE
:101640000A03009341F21410C2F2000041F638017F
:10165000C0F204014FF001024FF42F731DF0F2F8B5
:1016600078607B68002B10D141F21410C2F20000A8
:1016700041F2C161C0F2010141F21412C2F2000252
:101680004FF000031DF0F4F878607B68002B0DD05C
:1016900041F64C00C0F2040024F058FC4FF05D000D
:1016A00041F66401C0F20401FEF7ACFD0BF0DAFA7A
:1016B0004FF00003184607F10807BD4680BD00BF84
:1016C00080B582B000AF786039607B68002B0DD1A7
:1016D00041F68400C0F2040024F082FC4FF0670061
:1016E00041F66401C0F20401FEF78CFD00F0F6FF44
:1016F00000F036FF00F09EF800F0E0F900F0A2FAEA
:1017000000F012FC00F02CFD01F0E0FC01F056FAB4
:1017100007F10807BD4680BD90B585B002AF78607F
:1017200039607B684FF00302C3F8C0287A6841F63D
:10173000C403C0F20403144607CB20606160A260BA
:101740007B6803F114043B681B68184622F026FEF0
:1017500002460B46104619464FF000024FF48043F4
:10176000C4F28F0322F0AAFF02460B46CDE9002304
:1017700020464FF4967141F6D002C0F2040224F0E4
:1017800049FC7B6803F5A07241F6D403C0F2040360
:1017900003CB106051601B7813727B6803F5AA7449
:1017A0003B685B68184622F0E9FD02460B4610468E
:1017B00019464FF000024FF00003C4F2590322F023
:1017C0007DFF02460B46CDE9002320464FF496717B
:1017D00041F6D002C0F2040224F01CFC7B6803F541
:1017E000207241F6E003C0F2040303CB10605160A5
:1017F0001B7813727B6803F525723B689B68104663
:101800004FF4967141F6EC02C0F2040224F002FC9F
:1018100007F10C07BD4690BD80B582B000AF78607F
:10182000786805F0E5FC0346184607F10807BD4651
:1018300080BD00BF80B500AF40F25803C2F2000384
:101840001B6841F61900C0F20100194641F6A802D2
:10185000C0F2040201F02AFD0346184680BD00BF15
:1018600080B58AB000AF78604FF0FF337B6207F13C
:1018700018034FF000021A6003F104034FF0000256
:101880001A6003F104034FF000021A6003F104032D
:1018900007F10C034FF000021A6003F104034FF04C
:1018A00000021A6003F104034FF000021A6003F112
:1018B0000403786801F026FD40F25803C2F20003E9
:1018C0001A6807F10C031046194605F047FD7862C7
:1018D0007B6A002B0DD041F6F000C0F2040041F607
:1018E0004811C0F2040141F6A802C0F2040224F03B
:1018F0002DFB40F25803C2F200031A6807F11803E7
:101900001046194605F0C2FC78627B6A002B06D1AE
:1019100007F1180378681946FFF7FEFE0DE041F65F
:101920001810C0F2040041F64811C0F2040141F65B
:10193000A802C0F2040224F009FB07F12807BD4603
:1019400080BD00BF90B587B002AFF860B9607A6023
:10195000FB684FF00302C3F8C028FA6841F674131D
:10196000C0F20403144607CB20606160A2601A88AD
:101970009B78A281A373FB6803F5A07241F68413E0
:10198000C0F20403144607CB20606160A2601A888D
:101990009B78A281A373FB6803F5207241F6941330
:1019A000C0F20403144607CB20606160A2601A886D
:1019B0009B78A281A373FB6803F11404BB681B68C6
:1019C000184623F0CDF80346184622F0F9FC0246EB
:1019D0000B46104619464FF000024FF48043C4F204
:1019E0008F0322F06BFE02460B46CDE90023204612
:1019F0004FF4967141F6A412C0F2040224F00AFBDF
:101A0000FB6803F5AA74BB685B68184623F0A8F866
:101A10000346184622F0D4FC02460B4610461946EF
:101A20004FF000024FF48043C4F28F0322F046FED1
:101A300002460B46CDE9002320464FF4967141F64D
:101A4000A412C0F2040224F0E5FAFB6803F5257441
:101A5000BB689B68184623F083F80346184622F0BB
:101A6000AFFC02460B46104619464FF000024FF4F9
:101A70008043C4F28F0322F021FE02460B46CDE9DB
:101A8000002320464FF4967141F6A412C0F20402DE
:101A900024F0C0FA00BF07F11407BD4690BD00BF97
:101AA00080B582B000AF7860786805F053F80346DF
:101AB000184607F10807BD4680BD00BF80B500AFDE
:101AC00040F22803C2F200031B6841F6A120C0F2D5
:101AD0000100194641F65C12C0F2040201F0E6FB77
:101AE0000346184680BD00BF80B586B000AF786061
:101AF00039604FF0FF337B6107F108034FF00002BC
:101B00001A6003F104034FF000021A6003F10403AA
:101B10004FF000021A6003F10403786801F0F2FB51
:101B200040F22803C2F200031A6807F108031046C6
:101B3000194605F095F878617B69002B0DD041F6C8
:101B4000A810C0F2040041F6FC11C0F2040141F6F5
:101B50005C12C0F2040224F0F9F940F22803C2F248
:101B600000031A6807F108031046194605F042F908
:101B700078617B69002B07D107F108037868194663
:101B80003A68FFF7DFFE0DE041F6D010C0F2040026
:101B900041F6FC11C0F2040141F65C12C0F20402ED
:101BA00024F0D4F907F11807BD4680BD90B585B083
:101BB00002AF786039607B684FF00102C3F8C0283B
:101BC0007A6841F62023C0F2040303CB1060516011
:101BD00019889B78118193727B6803F1140438682B
:101BE00022F0BAFF0346184622F0EAFB02460B46F3
:101BF000104619464FF000024FF48043C4F28F03A1
:101C000022F05CFD02460B46CDE9002320464FF44E
:101C1000967141F62C22C0F2040224F0FBF907F180
:101C20000C07BD4690BD00BF80B582B000AF7860A4
:101C3000786806F07BF80346184607F10807BD46AA
:101C400080BD00BF80B500AF40F29403C2F2000334
:101C50001B6841F62940C0F20100194641F60C22EA
:101C6000C0F2040201F022FB0346184680BD00BF0B
:101C700080B586B000AF78604FF0FF337B614FF0E6
:101C800000037B824FF00003FB60786801F03AFBB1
:101C900040F29403C2F200031A6807F112031046DF
:101CA000194606F09FF878617B69002B0DD041F64C
:101CB0003020C0F2040041F67C21C0F2040141F65C
:101CC0000C22C0F2040224F041F940F29403C2F263
:101CD00000031A6807F10C031046194606F0C8F80D
:101CE00078617B69002B05D1FB6878681946FFF79E
:101CF0005DFF0DE041F65820C0F2040041F67C2162
:101D0000C0F2040141F60C22C0F2040224F01EF9D4
:101D100007F11807BD4680BD2DE9F0438BB006AF33
:101D2000F860B9607A607B68012B02D0022B45D045
:101D3000E7E0FB684FF00102C3F8C028FA6841F6FB
:101D4000A023C0F20403144607CB20606160A260A8
:101D50001B782373FB6803F11406BB681B681846E5
:101D600022F0FEFE0346184622F02AFB80468946F2
:101D7000BB685B68184622F0F3FE0346184622F063
:101D80001FFB04460D46BB689B68184622F0E8FE20
:101D90000346184622F014FB02460B46CDE90089A3
:101DA000CDE90245CDE9042330464FF4967141F662
:101DB000B022C0F2040224F02DF9A2E0FB684FF03B
:101DC0000302C3F8C028FA6841F6CC23C0F204032A
:101DD000144607CB20606160A2601A889B78A281BC
:101DE000A373FB6803F5A07241F6DC23C0F2040381
:101DF000144607CB20606160A2601A889B78A2819C
:101E0000A373FB6803F5207241F6EC23C0F20403D0
:101E1000144607CB20606160A2601A889B78A2817B
:101E2000A373FB6803F11404BB681B68184622F017
:101E300097FE0346184622F0C3FA02460B461046A8
:101E400019464FF000024FF48043C4F28F0322F092
:101E500035FC02460B46CDE9002320464FF496712F
:101E600041F6FC22C0F2040224F0D4F8FB6803F52A
:101E7000AA74BB685B68184622F072FE03461846D7
:101E800022F09EFA02460B46104619464FF0000219
:101E90004FF48043C4F28F0322F010FC02460B463D
:101EA000CDE9002320464FF4967141F6FC22C0F2A2
:101EB000040224F0AFF8FB6803F52574BB689B6847
:101EC000184622F04DFE0346184622F079FA0246E3
:101ED0000B46104619464FF000024FF48043C4F2FF
:101EE0008F0322F0EBFB02460B46CDE90023204690
:101EF0004FF4967141F6FC22C0F2040224F08AF8F5
:101F000000BF07F11407BD46BDE8F08380B582B07D
:101F100000AF7860786805F0E5FA0346184607F1E7
:101F20000807BD4680BD00BF80B500AF40F2440346
:101F3000C2F200031B6841F60D70C0F201001946A1
:101F400041F68C22C0F2040201F0B0F903461846B3
:101F500080BD00BF80B58AB000AF786039604FF0B7
:101F6000FF337B6207F118034FF000021A6003F1A0
:101F700004034FF000021A6003F104034FF0000263
:101F80001A6003F1040307F10C034FF000021A601A
:101F900003F104034FF000021A6003F104034FF051
:101FA00000021A6003F10403786801F0ABF940F213
:101FB0004403C2F200031A6807F1180310461946D9
:101FC00005F010FB78627B6A002B0DD041F60030E3
:101FD000C0F2040041F65431C0F2040141F68C22F3
:101FE000C0F2040223F0B2FF40F24403C2F2000345
:101FF0001A6807F10C031046194605F0C5FB786214
:102000007B6A002B07D107F10C03786819463A6800
:10201000FFF782FE0DE041F62830C0F2040041F6E1
:102020005431C0F2040141F68C22C0F2040223F0C4
:102030008DFF07F12807BD4680BD00BFB0B586B053
:1020400002AFF860B9607A60FB684FF00302C3F832
:10205000C028FA6841F67433C0F2040314461D46E2
:102060000FCD20606160A260E360FB6803F5A072A1
:1020700041F68433C0F2040314461D460FCD2060A0
:102080006160A260E360FB6803F5207241F694335F
:10209000C0F2040314461D460FCD20606160A260AB
:1020A000E360FB6803F11404BB681B68184622F068
:1020B00057FD0346184622F083F902460B46CDE948
:1020C000002320464FF4967141F6A432C0F2040278
:1020D00023F0A0FFFB6803F5AA74BB685B68184691
:1020E00022F03EFD0346184622F06AF902460B46EE
:1020F000CDE9002320464FF4967141F6A432C0F298
:10210000040223F087FFFB6803F52574BB689B6816
:10211000184622F025FD0346184622F051F90246E2
:102120000B46CDE9002320464FF4967141F6A432C8
:10213000C0F2040223F06EFF00BF07F11007BD4696
:10214000B0BD00BF80B582B000AF7860786805F0A0
:1021500061FF0346184607F10807BD4680BD00BF72
:1021600080B500AF40F27403C2F200031B6842F274
:102170004510C0F20100194641F66032C0F2040277
:1021800001F094F80346184680BD00BF80B588B0C2
:1021900000AF786039604FF0FF33FB6107F10C034B
:1021A0004FF000021A6003F104034FF000021A60BE
:1021B00003F104034FF000021A6003F104034FF02F
:1021C00000021A6003F10403786801F09BF840F202
:1021D0007403C2F200031A6807F10C031046194693
:1021E00005F06EFFF861FB69002B0DD041F6A830B9
:1021F000C0F2040041F6FC31C0F2040141F6603245
:10220000C0F2040223F0A2FE40F27403C2F2000303
:102210001A6807F10C031046194605F0D3FFF86160
:10222000FB69002B07D107F10C03786819463A685F
:10223000FFF704FF0DE041F6D030C0F2040041F694
:10224000FC31C0F2040141F66032C0F2040223F016
:102250007DFE07F12007BD4680BD00BF80B590B070
:1022600000AF78600FF0F4F841F60C40C0F20400C3
:1022700041F62451C0F2040123F068FE4FF001033F
:1022800087F83F3007F11C0318464FF000014FF06C
:10229000140223F0C1FD1FF053F8B86307F10C03DB
:1022A0004FF000021A6003F104034FF000021A60BD
:1022B00003F104034FF000021A6003F104034FF02E
:1022C00000021A8003F102034FF000021A7003F1BA
:1022D000010341F23C13C2F200031B68002B11D131
:1022E0001EF0BEFA0346002B0CD041F62440C0F28B
:1022F000040041F62451C0F2040123F027FE4FF000
:1023000001035BE041F23C13C2F200034FF0010213
:102310001A607B6803F1080341F65440C0F20400E0
:1023200041F62451C0F204011A4623F00FFE7B68E7
:1023300003F108037B637B6803F130033B63786B35
:10234000396B4FF000021EF043FB0346002B25D1F2
:1023500007F11C0318461EF085F80FF079F83B6A68
:1023600018461EF0AFFF0246BB6B1A6007F10C0364
:10237000B86B19461EF0B4FF07F10C0341F6744028
:10238000C0F2040041F62451C0F204011A4623F0C1
:10239000DDFD4FF0000387F83F300DE07B6803F16F
:1023A000080341F6AC40C0F2040041F62451C0F2EB
:1023B00004011A4623F0CAFD97F83F30184607F18A
:1023C0004007BD4680BD00BF80B584B000AF7860D7
:1023D00039604FF00003FB603B68012B02D0022BF9
:1023E0002ED03EE04FF001004FF0030106F05AF806
:1023F000F86041F6E473C2F201031B78002B07D0AA
:1024000041F6E473C2F201034FF000021A7006E0D5
:1024100041F6E473C2F201034FF001021A70FB6847
:10242000002B06D141F63050C0F2040023F08EFD9F
:102430001EE041F64050C0F2040023F087FD17E093
:10244000FB68002B06D141F66C50C0F2040023F06B
:102450007DFD0DE041F67C50C0F2040023F076FDD6
:1024600006E041F6A850C0F2040023F06FFD00BF63
:1024700007F11007BD4680BD80B584B000AF78601D
:1024800039604FF00003FB603B68012B02D0022B48
:102490002ED03EE04FF003004FF0030106F002F8AB
:1024A000F86041F6E473C2F201035B78002B07D0B9
:1024B00041F6E473C2F201034FF000025A7006E0E5
:1024C00041F6E473C2F201034FF001025A70FB6857
:1024D000002B06D141F63050C0F2040023F036FD47
:1024E0001EE041F64050C0F2040023F02FFD17E03B
:1024F000FB68002B06D141F66C50C0F2040023F0BB
:1025000025FD0DE041F67C50C0F2040023F01EFDD5
:1025100006E041F6A850C0F2040023F017FD00BF0A
:1025200007F11007BD4680BD80B582B000AF78606E
:102530004FF000007968FFF747FF07F10807BD4635
:1025400080BD00BF80B582B000AF78604FF0000062
:102550007968FFF791FF07F10807BD4680BD00BF0E
:1025600080B582B000AF4FF000037B6041F6E473AA
:10257000C2F201034FF000021A7041F6E473C2F296
:1025800001034FF000025A7007F0E4FB78607B68AB
:10259000002B08D14FF0010042F22951C0F2010195
:1025A00007F0F2FB78607B68002B08D14FF0020047
:1025B00042F24551C0F2010107F0E6FB78607B680A
:1025C000002B06D141F6E450C0F2040023F0BEFC1B
:1025D00006E041F60460C0F20400796823F0B6FC1E
:1025E0007B68184607F10807BD4680BD90B482B0ED
:1025F00000AF786039607B684FF00202C3F8C028F2
:102600007A6841F63C63C0F20403144607CB2060AD
:102610006160A2601A889B78A281A3737B6803F52E
:10262000A07241F64C63C0F20403144607CB20604D
:102630006160A2601A889B78A281A3733B681B78B3
:10264000002B0BD07B6803F1140241F65C63C0F2EF
:102650000403186810601B7913710AE07B6803F1AA
:10266000140241F66463C0F20403186810609B888A
:1026700093803B6803F101031B78002B0BD07B6830
:1026800003F5AA7241F65C63C0F204031868106097
:102690001B7913710AE07B6803F5AA7241F6646343
:1026A000C0F20403186810609B88938007F1080744
:1026B000BD4690BC704700BF80B582B000AF786067
:1026C000786800F01FFE786841F6E471C2F20101FB
:1026D000FFF78CFF07F10807BD4680BD80B582B0CB
:1026E00000AF4FF000037B6005F068FE78607B6808
:1026F000002B04D14FF0010005F084FE78607B6868
:10270000002B04D14FF0020005F07CFE78607B685E
:10271000002B04D14FF0030005F074FE78607B6855
:10272000002B07D141F67060C0F20400796823F0F5
:102730000DFC06E041F6A060C0F20400796823F0C9
:1027400005FC7B68184607F10807BD4680BD00BF41
:1027500080B582B000AF7860396041F66C63C0F23A
:1027600004031B681A467B689A4203D97868396863
:1027700005F098FE07F10807BD4680BD80B584B01E
:1027800000AFF860B9607A607B68F868B9681A468B
:1027900023F036FF0346002B14BF00230123DBB2D6
:1027A000184607F11007BD4680BD00BFB0B58CB01C
:1027B00002AF78607B681B689B683B617B681B6825
:1027C000DB68FB607B681B68DB683A69D3184FF0F5
:1027D00000021A7041F24010C2F2000002F01CFD2B
:1027E000FB684FF01402009241F24010C2F2000068
:1027F00039691A4641F24C13C2F2000302F04AFB57
:10280000B8604FF0FF337B624FF0FF333B624FF015
:10281000FF33FB614FF00103BB6156E041F24C1303
:10282000C2F20003BA694FEA02129B1803F10403D3
:102830001B683A69D31841F64470C0F20400194687
:102840004FF00402FFF79AFF0346002B02D0BB694A
:102850007B6236E041F24C13C2F20003BA694FEAE0
:1028600002129B1803F104031B683A69D31841F65E
:102870004C70C0F2040019464FF00402FFF77EFFCF
:102880000346002B02D0BB693B621AE041F24C13B5
:10289000C2F20003BA694FEA02129B1803F1040363
:1028A0001B683A69D31841F65470C0F20400194607
:1028B0004FF00502FFF762FF0346002B01D0BB6912
:1028C000FB61BB6903F10203BB61BA69BB689A4251
:1028D000A4DB7B6AB3F1FF3F5ED03B6AB3F1FF3FFD
:1028E0005AD0FB69B3F1FF3F56D04FF000037B6134
:1028F0004FE040F2D002C2F200027B694FEAC3030C
:10290000D3185D687B6A03F1010241F24C13C2F2F5
:1029100000034FEA02129B1803F104031B683A6993
:10292000D41840F2D002C2F200027B694FEAC3031E
:10293000D3185B68184623F033FE03462846214629
:102940001A46FFF71BFF0346002B1ED040F2D003B0
:10295000C2F200037A6953F832403B6A03F1010383
:102960004FEA031241F24C13C2F20003D218FB6982
:1029700003F101034FEA031141F24C13C2F20003C9
:10298000CB18386911461A46A0477B6903F1010349
:102990007B617B69012BACD907F12807BD46B0BD2F
:1029A00080B588B000AFF860B9607A604FF001037D
:1029B000FB614FF0FF337B617B685B68FA68D2187C
:1029C00007F11403104641F65C71C0F204011A4687
:1029D00023F07CFB7B69012B03D14FF00203FB61E9
:1029E00016E07B69022B03D14FF00303FB610FE07C
:1029F0007B69002B0CD07B6941F66070C0F204004B
:102A000042F25001C0F204011A4623F09FFA5FE03F
:102A100041F63473C0F204031B68BB61BB685B689A
:102A2000FA68D31841F68470C0F2040019464FF0DA
:102A30000302FFF7A3FE0346002B06D041F62873DE
:102A4000C0F204031B68BB613DE0BB685B68FA68C9
:102A5000D31841F68870C0F2040019464FF0060200
:102A6000FFF78CFE0346002B06D041F62C73C0F214
:102A700004031B68BB6126E0BB685B68FA68D31877
:102A800041F69070C0F2040019464FF00602FFF7BD
:102A900075FE0346002B06D041F63073C0F20403E6
:102AA0001B68BB610FE0BB685B68FA68D31841F62E
:102AB0009870C0F2040042F25001C0F204011A46BC
:102AC00023F044FA04E0BB691846F969FFF740FEB9
:102AD00007F12007BD4680BD80B586B000AFF86025
:102AE000B9607A604FF0FF337B617B685B68FA689E
:102AF000D21807F11403104641F65C71C0F20401CC
:102B00001A4623F0E3FA7B69002B46DDBB685B685D
:102B1000FA68D31841F6C070C0F2040019464FF0AD
:102B20000702FFF72BFE0346002B14D07B6941F60A
:102B3000C870C0F2040042F24001C0F204011A461B
:102B400023F004FA7B694FF47A7202FB03F3184610
:102B500000F06AFA2DE0BB685B68FA68D31841F6AA
:102B6000E870C0F2040019464FF00902FFF706FEB4
:102B70000346002B04D07B69184601F035FF18E0AE
:102B80007B6941F6F470C0F2040042F24001C0F2E9
:102B900004011A4623F0DAF90BE07B6942F21800CF
:102BA000C0F2040042F24001C0F204011A4623F0D0
:102BB000CDF907F11807BD4680BD00BF90B585B0BF
:102BC00004AF4FF0010009F0A3F9024641F2982347
:102BD000C2F200031A6042F26403C0F204031B68ED
:102BE0009AB242F26803C0F204031B68009341F2F8
:102BF0009023C2F2000301934FF0000302934FF0C1
:102C00000003039342F67D50C0F2010042F26C01D2
:102C1000C0F204014FF0000309F0E6FE41F29023F8
:102C2000C2F200031B68184642F26C01C0F20401B4
:102C300000F0BCFA42F60953C0F20103009342F2DD
:102C40007C00C0F204004FF47A714FF001024FF0A3
:102C500000030BF043F8024641F29423C2F2000352
:102C60001A6041F29423C2F200031B68002B0CD1BE
:102C700042F28400C0F2040042F21021C0F20401CA
:102C800023F064F94FF0010338E041F29423C2F2DB
:102C900000031C680AF008F903464FF6FF72009221
:102CA00020464FF001011A464FF000030BF054F894
:102CB0000346002B0CD142F2C000C0F2040042F2E5
:102CC0001021C0F2040123F041F94FF0010315E097
:102CD00041F29823C2F200031B68002B0CD142F290
:102CE000F800C0F2040042F21021C0F2040123F007
:102CF0002DF94FF0010301E04FF00003184607F1F2
:102D00000407BD4690BD00BF80B582B000AF7860BB
:102D100041F2A023C2F200031B6803F1010241F259
:102D2000A023C2F200031A6041F2A023C2F2000302
:102D3000196848F68903C8F68803A3FB01234FEA04
:102D4000531213464FEA03139B1A4FEA8303CA1A1E
:102D5000002A0FD141F2A023C2F200031B6842F205
:102D60005410C0F2040042F20021C0F204011A46DD
:102D700023F0ECF807F10807BD4680BD80B584B0AC
:102D800000AF78604FF00003FB734FF00003BB739C
:102D900000E000BF0AF0D6FD0346184600F05AFADC
:102DA00041F29823C2F200031B6818464FF000015D
:102DB0004FF00A024FF0000309F0F6FA0346012B28
:102DC0001ED141F29C23C2F200031B78002B09D0D4
:102DD0004FF00603FB7341F29C23C2F200034FF055
:102DE00000021A7041F29823C2F200031B681846D1
:102DF0004FF000014FF000024FF0000309F0E4F83B
:102E0000FB7B062BC5D801A252F823F0292E010026
:102E10004B2E0100772E0100C92E0100ED2E01007E
:102E2000372F0100152F010041F2A420C2F200004B
:102E300003F064FC0346002B03D14FF00103FB7346
:102E40007AE04FF00603FB7376E041F2A420C2F271
:102E50000000FFF703FA0346002B03D14FF00203F3
:102E6000FB7369E042F26003C0F204031B6818467A
:102E700009F0A2FE60E041F2A420C2F2000001F0DD
:102E8000DDFA0346002B03D14FF00303FB7353E03D
:102E9000BB7B052B94BF00230123DBB2BA7B02F17D
:102EA0000102BA73002B06D04FF00603FB734FF0FC
:102EB0000003BB7340E042F26003C0F204031B68EE
:102EC000184609F079FE37E041F2A423C2F200036C
:102ED000D3F8B032002B05D041F2A420C2F200009A
:102EE00000F0B8F84FF00403FB7325E000F026F87B
:102EF0000346012B03D14FF00603FB731CE000F0E7
:102F00001FF940F2E003C2F200031B68184609F003
:102F100053FE11E042F27810C0F2040042F2EC11CC
:102F2000C0F2040123F012F800F010F940F6B830B6
:102F300009F042FE00E000BF2BE700BF80B5ADF511
:102F40000D6D00AF4FF00003C7F8CC3861E040F2E0
:102F5000C803C2F20003D7F8CC289B181B78002BBB
:102F600051D040F2B003C2F20003D7F8CC2853F896
:102F7000222041F2A423C2F20003D3F8B43207F1B5
:102F800004010846194690474FF00003C7F8C838B7
:102F900031E007F10401D7F8C82813464FEA83034C
:102FA0009B184FEA8313CB18184641F2A421C2F2B2
:102FB000000101F085FA0346002B0CDA42F298106A
:102FC000C0F2040042F2E411C0F2040122F0BEFF9C
:102FD0004FF0010323E042F25C03C0F204031B68DC
:102FE00018464FF00301FFF7B3FBD7F8C83803F1D9
:102FF0000103C7F8C83807F10403D3F8C028D7F88D
:10300000C8389A42C5D8D7F8CC3803F10103C7F8BD
:10301000CC38D7F8CC38062B99D94FF00003184696
:1030200007F50D67BD4680BD80B483B000AF786002
:103030007B68002B02D14FF47A737B6040F2E0038F
:10304000C2F200037A681A6007F10C07BD4680BC23
:10305000704700BF80B586B004AF786042F2AD70B3
:10306000C0F20100796801F0D3FA42F26803C0F2BD
:1030700004031B6803F1FF33009341F28C23C2F277
:10308000000301934FF0000302934FF000030393FA
:1030900043F6B920C0F2010042F2D411C0F204019B
:1030A0004FF47A724FF0000309F09EFC41F28C233A
:1030B000C2F200031B68184642F2D411C0F20401A8
:1030C00000F074F807F10807BD4680BD80B584B0F4
:1030D00000AF42F28022C0F2040207F1040310683C
:1030E000516803C3127A1A7042F21C20C0F2040025
:1030F00042F28C21C0F2040122F028FF07F1040300
:1031000018460EF0D1F942F24020C0F2040042F21B
:103110008C21C0F2040122F019FF4FF001000EF0E3
:1031200073F942F26420C0F2040042F28C21C0F232
:10313000040122F00BFF07F11007BD4680BD00BF60
:1031400080B500AF0EF084F980BD00BF80B584B0BB
:1031500000AF4FF000033B714FF000037B714FF065
:103160000003BB714FF00003FB714FF000033B7293
:103170004FF000037B724FF00003BB724FF002036D
:10318000FB724FF000033B734FF000000EF03CF970
:1031900007F1040318460EF087F94FF001000EF016
:1031A00033F907F11007BD4680BD00BF80B584B07C
:1031B00000AF786039604FF00003FB7343E0FA7BA7
:1031C00041F25C53C2F200034FEA02129B181B79D2
:1031D0005BB2B3F1FF3F32D1FA7B41F25C53C2F2F2
:1031E00000034FEA02129B184FF000021A71FA7B9B
:1031F00041F25C53C2F200034FEA02129B187A6854
:103200001A60FB7B4FEA031241F25C53C2F20003E7
:10321000D31803F10603184639684FF00A0223F069
:103220007FFAFA7B41F25C53C2F200034FEA0212CA
:103230009B1803F109034FF000029A7106E0FB7B33
:1032400003F10103FB73FB7B132BB8D907F11007C4
:10325000BD4680BD80B485B000AF78604FF00003FC
:10326000FB731BE0FA7B41F25C53C2F200034FEAAE
:1032700002129B181A687B689A420BD1FA7B41F2C2
:103280005C53C2F200034FEA02129B184FF0000297
:103290001A7106E0FB7B03F10103FB73FB7B132B2D
:1032A000E0D907F11407BD4680BC704780B584B0F3
:1032B00000AFF860B9607A60FB68B8689847034669
:1032C000002B0DD142F29C20C0F2040042F2EC210E
:1032D000C0F204017A6822F039FE4FF000030CE0DE
:1032E00042F2C420C0F2040042F2EC21C0F2040118
:1032F0007A6822F02BFE4FF00103184607F1100701
:10330000BD4680BD80B485B000AF78607B684FF06B
:103310000002C3F8C0284FF00003FB601DE079688D
:10332000FA6813464FEA83039B184FEA8313CB18BE
:103330004FF000021A707968FA6813464FEA830367
:103340009B184FEA8313CB1803F110034FF00002D0
:103350001A71FB6803F10103FB60FB68062BDEDDDD
:1033600007F11407BD4680BC704700BF80B485B02C
:1033700000AFF860B9607A60FB68BA685A60FB68B1
:103380007A681A6007F11407BD4680BC704700BF19
:1033900080B483B000AF78607B681A684FF6FF7323
:1033A0009A4204D07B681B6803F1010301E04FF0EF
:1033B00001037A6813607B681B68184607F10C07E5
:1033C000BD4680BC704700BFF0B587B000AFF86065
:1033D000B9607A604FF001037B614FF000033B61FD
:1033E00023E0FB681B6D9C68FB681E6DFB681A6917
:1033F0003B69D518786800F0FFFD03463046294642
:10340000BA68A047786142F2F820C0F2040042F2A4
:103410007031C0F204017A6922F098FD7B69002BBB
:103420000EDB3A697B69D3183B613A69BB689A4203
:1034300007DA786800F0A8FD0346002BD1D000E041
:1034400000BF3A69BB689A420CD1FB6803F1540291
:10345000FB689B691046194600F0BAFD4FF0000367
:103460007B6102E04FF001037B617B69184607F145
:103470001C07BD46F0BD00BF80B586B000AFF86048
:10348000B9607A603B60FB68BA681A654FF0000368
:103490007B610DE0FA687B6903F104034FEAC30323
:1034A000D3184FF000025A607B6903F101037B617E
:1034B0007B69042BEEDDFB687A685A60FB683A682A
:1034C0001A61FB683A6A9A60FB687A6A5A61FB681B
:1034D000BA6ADA60FB684FF000021A62FB684FF0CC
:1034E00000021A77FB684FF00002DA64FB6803F110
:1034F0005403184600F094FD07F11807BD4680BD3F
:1035000090B58BB000AFF860B9607A604FF00103FE
:103510007B624FF000033B624FF00403FB61BB682A
:103520004FF000021A604FF0FF33BB613B6A03F1BA
:1035300001033B623A6AFB699A4203DD4FF0FF33B5
:10354000BB6126E0FB681B6D5C68FB681A6D07F1C8
:103550001703104619464FF001027B68A047B86177
:10356000BB69012B14D1BB681A68FB7D03F07F0394
:10357000796A01FB03F3D218BB681A607B6A4FEAD1
:10358000C3137B62FB7DDBB25BB2002BCBDB00E0C5
:1035900000BF3B6A184607F12C07BD4690BD00BF2F
:1035A0002DE9F04186B000AF786039604FF001033B
:1035B0007B614FF00003FB604FF000033B614FF075
:1035C0000003BB607B681B6D5C687B681E6D7B685D
:1035D0005D69386800F010FD0346304629464FF01B
:1035E0000102A0470346012B3ED14FF001033B618E
:1035F000386800F001FD034607F1080278681146BB
:103600001A46FFF77DFF7B685B6903F10102BB6827
:103610001046194601F016FE03463A69D3183B617D
:10362000BB68002B16DD7B681B6D5C687B68D3F87C
:1036300050807B685A693B69D618BD68386800F0CD
:10364000DBFC0346404631462A46A0470246BB689B
:103650009A420BD17B685B691B783B73FB68C3F3B1
:103660000313DBB27B6102E000BF00E000BF7B69B7
:10367000184607F11807BD46BDE8F08180B487B051
:1036800000AF786039607B687B613B689B683B6119
:103690003B685B683A69D318BB603FE03B691B78C5
:1036A0002F2B03D17B691B782F2B40D17B691B7893
:1036B0002B2B09D07B691B78232B05D07B691A78CB
:1036C0003B691B789A4234D17B691B782B2B15D12F
:1036D0003B6903F10103FB6007E03B6903F1010370
:1036E0003B613B6903F10103FB60FA68BB689A42E6
:1036F0000CD2FB681B782F2BEFD107E07B691B787E
:10370000232B03D1BB6803F1FF333B617B6903F1DA
:1037100001037B613B6903F101033B617B691B781A
:10372000002B07D03A69BB689A42B7D302E000BFCA
:1037300000E000BF3A69BB689A4206D17B691B78FA
:10374000002B02D14FF0010301E04FF00003DBB288
:10375000184607F11C07BD4680BC704780B58AB08B
:1037600000AFF860B9607A604FF001033B624FF040
:1037700000037B624BE0FA687B6A03F104034FEAC3
:10378000C303D3185B68002B3DD0FA687B6A03F152
:1037900004034FEAC303D3185B68B868194601F005
:1037A00063FF0346002B0ED1FA687B6A03F1040322
:1037B0004FEAC303D3185B681846B968FFF75EFF8A
:1037C0000346002B1FD0FA687B6A03F104034FEA1B
:1037D000C303D3189B68002B15D007F118031846B4
:1037E000B9687A68FFF7C2FDFA687B6A03F10403DF
:1037F0004FEAC303D3189B6807F118021046984795
:103800004FF000033B627B6A03F101037B627B6A3A
:10381000042BB0DD3B6A012B13D1FB68DB6C002B62
:103820000FD007F110031846B9687A68FFF79EFDBC
:10383000FB68DB6C07F11002104698474FF000035D
:103840003B623B6A184607F12807BD4680BD00BFB2
:1038500080B586B000AF78604FF001037B617B6874
:103860009B69002B03D14FF000037B6133E07B6841
:1038700003F15403184600F087FB0346002B2AD0BF
:103880007B681B7F002B26D107F10803184600F048
:10389000C7FB07F1080318464FF47A7100F088FB64
:1038A0007B681A697B689B681046194602F024F908
:1038B00038613B69002B0EDD07F108037868396930
:1038C0001A46FFF781FD78617B69002B03D17B6885
:1038D0004FF001021A777B69184607F11807BD46B9
:1038E00080BD00BFF0B595B006AF786039607868EC
:1038F0003968FFF755FE0346FB854FF000037B63F5
:103900004FF000033B63FB8DA3F102030B2B00F28E
:10391000C58001A252F823F09D3A01004939010007
:103920009D3A01001D3A01009D3A01009D3A0100B7
:103930009D3A01009D3A01009D3A01009D3A010027
:103940009D3A0100933A01007B685D697B68DB6802
:103950001C4607F1100303F1020007F1100107F103
:10396000100303F1010207F1100303F1040307F14F
:103970002006009607F1100606F10806019607F1E9
:10398000100606F10C0602960395049402F0C6F8A0
:103990000346012B40F0858007F1200207F1100358
:1039A000786811461A46FFF7D9FE3B7C002B75D08C
:1039B0003B7C012B0FD17B681A697B689B68B98AB5
:1039C0000091104619464FF004024FF0000302F038
:1039D00031FB786311E03B7C022B0ED17B681A69C6
:1039E0007B689B68B98A0091104619464FF0050222
:1039F0004FF0000302F01EFB78637B6B002B03DCAF
:103A00004FF001033B6305E07868796B3A68FFF794
:103A1000DBFC38633B6B012B40D142E07B685B6988
:103A20007A68D268144607F10C0007F10D0107F11E
:103A30000E02009402F0E8F80346012B03D04FF089
:103A400001033B6321E07B681A697B689B68F98905
:103A50000091104619464FF006024FF0000302F0A5
:103A6000E9FA78637B6B002B03DC4FF001033B63C7
:103A70000BE07868796B3A68FFF7A6FC38633B6B1C
:103A8000002B02D04FF001033B633B6B012B05D1B0
:103A900007E07B684FF000021A7700BF7868FFF7F5
:103AA000D7FE3B6B002B01D1FB8D3B633B6B184674
:103AB00007F13C07BD46F0BD80B586B000AF786029
:103AC00039604FF000037B6107F10C03184600F0EA
:103AD000A7FA3B6807F10C021046194600F068FA95
:103AE0000CE007F10C0378681946FFF7FBFE03466C
:103AF000012B03D14FF001037B6107E007F10C03B9
:103B0000184600F041FA0346002BEAD07B691846BC
:103B100007F11807BD4680BD80B586B000AFF860DC
:103B2000B9607A604FF001037B61786800F02CFA8D
:103B30000346002B09D1F8687968FFF7D3FE786156
:103B40007A69BB689A42F0D100E000BF7B691846F1
:103B500007F11807BD4680BD80B59EB000AF786004
:103B600039604FF001037B6742F21833C0F204035F
:103B700007F110011A464FF05803084611461A463D
:103B800021F0C4FF4FF000033B6707F168031846BC
:103B900000F046FA7B685B6807F168021046194638
:103BA00000F006FA7B681B6A002B54D13B68002B9F
:103BB00002D107F110033B603B681B8B1A467B6800
:103BC0009A617B6803F154027B689B691046194631
:103BD00000F0FEF97B681A697B689B6810461946FD
:103BE0003A6801F0EDFD38673B6F002B35DD07F1DA
:103BF00068037868396F1A46FFF7E6FB78677B6FD2
:103C0000002B2CD107F1680378684FF002011A46A7
:103C1000FFF782FF0346022B19D14FF0FF03FB731E
:103C20004FF00003BB737B685A697B68DB6807F160
:103C30000E0007F10F0101F0C5FE0346012B02D172
:103C4000FB7B7B670CE04FF001037B6708E04FF0E4
:103C500001037B6704E000BF02E000BF00E000BF9B
:103C60007B6F002B03D17B684FF001021A627B6FE0
:103C7000184607F17807BD4680BD00BFB0B594B0C7
:103C800004AFF860B9603B601346FB714FF001036D
:103C9000FB634FF000037B634FF000033B624FF088
:103CA00000037B624FF00003BB62BB683B6207F11D
:103CB0002C03184600F0B4F9FB685B6807F12C028E
:103CC0001046194600F074F9FB681B6A002B00F0DF
:103CD0008380FB681D69FB689B681C46F868FFF7DA
:103CE00057FB03469BB24FF00102009207F12002FE
:103CF000019207F107020292284621464FF0000286
:103D000002F000F878637B6B002B67DD07F12C0372
:103D1000F868796B1A46FFF757FBF863FB6B002BCB
:103D20005ED107F12C03F8684FF009011A46FFF73E
:103D3000F3FE0346092B4BD14FF00003FB614FF01C
:103D4000FF33BB61FB685C69FB68DB68184607F101
:103D5000160107F11C0207F11803009401900846B0
:103D60004FF0010102F054F80346012B01D1BB6969
:103D7000FB63FB6B802B34D04FF00003BB6323E06D
:103D8000FA68BB6B03F104034FEAC303D3185B6803
:103D9000002B15D1FA68BB6B03F104034FEAC30390
:103DA000D318BA685A60FA68BB6B03F104034FEA90
:103DB000C303D3183A689A604FF00003FB6310E026
:103DC000BB6B03F10103BB63BB6B042BD8DD08E0C5
:103DD0004FF00103FB6304E000BF02E000BF00E01E
:103DE00000BFFB6B184607F14007BD46B0BD00BFE2
:103DF0002DE9F04196B008AFF860B9607A604FF0F5
:103E000001037B634FF00003FB614FF000033B6253
:103E10004FF000037B62BB68FB614FF000033B6324
:103E200007F12803184600F0FBF8FB685B6807F110
:103E300028021046194600F0BBF8FB681B6A002BED
:103E400000F095807B681B78012B03D07B681B7882
:103E5000022B06D1F868FFF79BFA03469AB27B68FB
:103E60009A80FB68D3F810E0FB689B681E467B686D
:103E70001B781D467B685A787B689B887968D1F8E7
:103E800008807968C9688C460092019302AC07F1FA
:103E90001C0393E8070084E80700CDF81480CDF8F0
:103EA00018C0704631464FF000022B4602F042F82F
:103EB00038633B6B002B5CDD07F12803F868396B36
:103EC0001A46FFF781FA78637B6B002B53D17B682E
:103ED0001B78012B23D107F12803F8684FF0040168
:103EE0001A46FFF719FE0346042B14D1FB685B69E1
:103EF000FA68D268144607F1180007F1190107F1B2
:103F00001A02009401F080FE0346012B34D04FF0DA
:103F100001037B6330E04FF001037B632CE07B689F
:103F20001B78022B28D107F12803F8684FF007010E
:103F30001A46FFF7F1FD0346072B14D1FB685B69B6
:103F4000FA68D268144607F1140007F1150107F169
:103F50001602009401F058FE0346012B0CD04FF0DE
:103F600001037B6308E04FF001037B6304E000BFC3
:103F700002E000BF00E000BF7B6B184607F1380786
:103F8000BD46BDE8F08100BF90B585B000AF786058
:103F90007B685C6808F088FF0346E31AFB60FB68F7
:103FA0004FEAD373DBB2184607F11407BD4690BD44
:103FB00080B582B000AF7860396008F075FF0246C6
:103FC0003B68D2187B685A6007F10807BD4680BD80
:103FD00080B582B000AF7860396008F065FF0246B6
:103FE0003B684FF47A7101FB03F3D2187B685A6087
:103FF00007F10807BD4680BD90B585B000AF786079
:104000007B685C6808F050FF0346E31AFB60FB68BE
:1040100023EAE373184607F11407BD4690BD00BFBD
:1040200080B483B000AF78607B684FF000025A60C4
:1040300007F10C07BD4680BC704700BF80B58CB04F
:1040400002AFF860B9607A603B604FF000033B62FA
:104050004FF000037B6207F11403184614F0CCFE06
:10406000FB681B689BB21AB207F11403104619468D
:1040700014F0AAFE4FF00003BB613B684FF47A7264
:1040800002FB03F3FB61FB681B689BB203F10103B6
:104090009BB29BB21AB207F1140307F11801009109
:1040A000104619464FF000024FF0000314F0C8FD0F
:1040B0000346012B1FD1FB681B6899B27B6ABA6863
:1040C000D2187B6898B27B6A9BB2C31A9BB29BB230
:1040D00009B21BB2084611461A464FF0000314F00D
:1040E0001DFD03463B627A6A3B6AD3187B627A6A9B
:1040F0007B689A42DFDB7B6A184607F12807BD46DA
:1041000080BD00BF80B58CB002AFF860B9607A6046
:104110003B604FF000037B6207F11403184614F074
:104120006BFEFB681B689BB21AB207F114031046C2
:10413000194614F049FE4FF00003BB613B684FF491
:104140007A7202FB03F3FB61FB681B689BB203F10D
:1041500001039BB29BB21AB207F1140307F11801D5
:10416000009110464FF000011A464FF0000314F082
:1041700067FD03463B623B6A012BE5D1FB681B6888
:104180009AB27B689BB212B21BB21046B9681A464B
:104190004FF0000314F042FB03467B627B6A184633
:1041A00007F12807BD4680BD80B582B000AF7860BA
:1041B0007B681B689BB21BB2184614F0BFF907F16D
:1041C0000807BD4680BD00BF80B483B000AF7860F3
:1041D0007B684FF000021A607A6844F23D03C0F237
:1041E000010353607A6844F20513C0F2010393603F
:1041F0007A6844F2A913C0F20103D36007F10C07F7
:10420000BD4680BC704700BF80B590B002AFF8607B
:10421000B9607A603B60B86822F0C2F903469AB28E
:1042200007F11C03B86811461A464FF0020313F059
:1042300023FE03467B637B6B002B02DA4FF0FF33D8
:1042400097E04FF002033B847B689BB2184614F062
:10425000A3FB03467B84FB69184614F071FB0346FD
:104260007B624FF010033B634FF002004FF00101FF
:104270004FF0640214F024F903461A46FB681A60F2
:10428000FB681B68002B02DA4FF0FF3371E097F8F0
:1042900040303B76FB681B689BB21AB207F11803EB
:1042A0004FF00101009110464FF001014FF019024B
:1042B00014F07CFC03467B637B6B002B01DA7B6B89
:1042C00057E07B6C7B61FB681B689BB21AB207F1FD
:1042D00014034FF00401009110464FF001014FF01C
:1042E0001A0214F063FC03467B637B6B002B01DA3C
:1042F0007B6B3EE03B68002B15D0FB681B689AB2D5
:104300003B6812B24FF00401009110464FF00101DA
:104310004FF01B0214F04AFC03467B637B6B002BBF
:1043200001DA7B6B25E0FB681B689AB23B6B9BB2A2
:1043300011B207F120021BB2084611461A4614F0CA
:104340002BF903467B637B6B002B11DA97F848301F
:10435000002B04D17A6B6FF4E2739A4208D0FB68A9
:104360001B689BB21BB2184614F0E8F87B6B00E0A8
:104370007B6B184607F13807BD4680BD80B58CB011
:1043800000AFF860B9607A604FF0FF33FB62B86845
:1043900022F006F903469AB207F11403B8681146F1
:1043A0001A464FF0020313F067FD4FF002033B8300
:1043B0007B689BB2184614F0EFFA03467B837B6957
:1043C000184614F0BDFA0346FB614FF01003BB62C0
:1043D0004FF002004FF001014FF0000214F070F8AE
:1043E00003461A46FB681A60FB681B68002B02DA5A
:1043F0004FF0FF331CE0FB681B689AB2BB6A9BB2AC
:1044000011B207F118021BB2084611461A4614F001
:10441000C3F80346FB62FB6A002B08DAFB681B68E3
:104420009BB21BB2184614F089F8FB6A00E0FB6AE5
:10443000184607F13007BD4680BD00BF80B584B087
:1044400000AF786042F27C30C0F2040042F2F451D6
:10445000C0F2040121F07AFD4FF00103FB7341F239
:104460009C60C2F20000FFF7AFFE786800F076F9BA
:104470000346002B14D142F29430C0F2040042F201
:10448000F451C0F2040121F061FD41F6D963C2F29A
:1044900000034FF000021A704FF00003FB7309E0B5
:1044A00042F2B030C0F2040042F2F451C0F2040112
:1044B00021F04CFDFB7B184607F11007BD4680BD7F
:1044C00090B5ADF2844D00AF07F1040318603B4690
:1044D00019604FF00003C7F8043407F581624FF00C
:1044E000740310464FF000011A4621F095FC4FF07E
:1044F000FF33C7F87C3441F6D863C2F200031B785F
:104500001A46A7F8F82303F10103DAB241F6D8639B
:10451000C2F200031A704FF0000387F8F43307F17A
:104520000C03C7F8FC3307F1040107F10C023B460A
:10453000086811461A6800F029FA0346C7F80034E3
:104540003B461B68D3F8B432012B02D0022B38D083
:1045500048E007F20443184622F022F8034607F227
:104560000442D21842F22043C0F2040318681060DB
:104570001B7913713B461B6803F1580307F2044291
:104580001046194621F01CFE0446204622F008F889
:104590000346E21842F22843C0F204031868106090
:1045A0009B88938007F2044207F57D7341F2AC606B
:1045B000C2F2000011461A46FFF71AFCC7F87C0445
:1045C00010E03B461B6803F5097207F57D7341F265
:1045D000AC60C2F2000011461A46FFF709FCC7F8AA
:1045E0007C0400BFD7F8FC3342F23040C0F2040034
:1045F00042F2E451C0F204011A4621F0A7FCD7F8B8
:104600007C34184607F1840707F58067BD4690BDE6
:1046100090B5A3B000AF786039604FF00003FB6045
:1046200007F110024FF0740310464FF000011A46D4
:1046300021F0F2FB4FF0FF33C7F884303B68D3F82A
:10464000B432012B02D0022B38D070E007F10C03FA
:10465000184621F0A5FF034607F10C02D21842F2DA
:104660002043C0F20403186810601B7913713B6883
:1046700003F1580307F10C021046194621F0A0FD82
:104680000446204621F08CFF0346E21842F24843DC
:10469000C0F2040303CB106051601B88138107F143
:1046A0000C0341F2AC60C2F2000019464FF0010267
:1046B0007B68FFF7E3FAC7F8840038E007F10C03E2
:1046C000184621F06DFF034607F10C02D21842F2A2
:1046D0005443C0F2040303CB106051601B88138164
:1046E0003B6803F5C27307F10C021046194621F02E
:1046F00067FD0446204621F053FF0346E21842F2CC
:104700004843C0F2040303CB106051601B8813813F
:1047100007F10C0341F2AC60C2F2000019464FF001
:1047200001027B68FFF7AAFAC7F8840000BF07F10F
:104730000C0342F26040C0F2040042F2D451C0F2D5
:1047400004011A46D7F8843021F000FCD7F88430F1
:10475000184607F18C07BD4690BD00BF80B59EB0DE
:1047600004AF78604FF0FF337B667B68D3F8B432D8
:10477000012B29D0022B36D14FF0000387F860308F
:104780004FF0000387F861304FF0000387F8623084
:104790004FF0000387F863307B6803F522717B6874
:1047A0005A6807F160034FF0030000904FF01000CB
:1047B00001904FF00000029041F29C60C2F20000B4
:1047C000FFF722FD78660EE07B6803F5AE727B682A
:1047D0001B6841F29C60C2F2000011461A46FFF7C6
:1047E000CDFD786600BF7B6E002B05D07A6E6FF42E
:1047F000E2739A4240F0B8804FF47A73009341F626
:10480000F023C2F2000301934FF47A73029341F252
:10481000AC60C2F2000041F29C61C2F200014FF4B0
:104820007A7241F20873C2F20003FEF725FE42F2EB
:104830002C53C0F2040307F108011A464FF0580345
:10484000084611461A4621F061F97B68D3F8B43264
:10485000012B33D0022B63D14FF0000387F82330B4
:104860004FF003033B747B6803F5FE737B617B6849
:1048700003F5D673BB647B6803F5EA737B654FF081
:104880000A033B844FF0010387F822307B6803F56D
:1048900022727B685B68796801F5D670796801F5EA
:1048A000EA710090019142F28440C0F2040042F2A9
:1048B000C851C0F2040121F049FB31E04FF0000380
:1048C00087F823304FF003033B747B6803F1D00378
:1048D0007B617B6803F18003BB647B6803F1A80301
:1048E0007B654FF00A033B844FF0010387F82230C9
:1048F0007B6803F5AE727B681B68796801F1800004
:10490000796801F1A8010090019142F28440C0F25F
:10491000040042F2C851C0F2040121F017FB00BFAD
:1049200007F1080341F2AC60C2F200001946FFF73C
:1049300013F978667B6E002B0BD142F2BC40C0F2BB
:10494000040042F2C851C0F204017A6E21F0FEFA6E
:1049500015E042F2D840C0F2040042F2C851C0F261
:10496000040121F0F3FA0AE042F20050C0F2040020
:1049700042F2C851C0F204017A6E21F0E7FA7B6E70
:10498000184607F16807BD4680BD00BF80B584B0FA
:1049900000AFF860B9607A607B68D3F8B432012B5D
:1049A00002D0022B0DD019E0FA68FB6803F1140362
:1049B000B86842F28451C0F2040121F05FFB034663
:1049C0000DE0FA68FB6803F11403B86842F2AC51D9
:1049D000C0F2040121F052FB034600E0FFE7184655
:1049E00007F11007BD4680BD80B483B000AF78608A
:1049F00040F2E403C2F200037A681A6007F10C0780
:104A0000BD4680BC704700BF80B487B000AFF8607F
:104A1000B9607A60FB685A687B689A4202D34FF0AB
:104A2000000317E0FB685B684FEA0312B9688A1855
:104A30007A6103F10102FB685A607B694FF0FF3233
:104A40009A607B699A687B695A607B694FF00002C3
:104A5000DA607B69184607F11C07BD4680BC7047C9
:104A600080B485B000AFF8607A603B600B46FB72A3
:104A7000FB68FA7A1A70FB687A685A60FB683A68D1
:104A80009A60FB684FF00002DA6007F11407BD4638
:104A900080BC704780B586B000AFF860B9607A60BE
:104AA0003B60FB681B687B6134E0FB681B68BA688D
:104AB000D3181B78202B3AD0202B06DC092B0FDBD8
:104AC0000A2B34DD0D2B32D00AE03A2B2FD03A2BB3
:104AD00002DC2C2B2BD003E05D2B28D07D2B26D0A5
:104AE000FB681B68BA68D3181B781F2B06D9FB68B4
:104AF0001B68BA68D3181B787E2B05D97A69FB68C6
:104B00001A606FF001033EE0FB681B6803F10102CD
:104B1000FB681A60FB681A687B689A4208D2FB68D7
:104B20001B68BA68D3181B78002BBED100E000BF09
:104B30003B68002B08D1FB681B6803F1FF32FB6860
:104B40001A604FF000031EE0F86839683A6AFFF710
:104B50005BFF38613B69002B05D17A69FB681A60FD
:104B60004FF0FF330FE0FB681B6838694FF004011A
:104B70007A69FFF775FFFB681B6803F1FF32FB687A
:104B80001A604FF00003184607F11807BD4680BDB4
:104B900080B588B000AFF860B9607A603B60FB68B0
:104BA0001B68BB61FB681B6803F10102FB681A60AC
:104BB00059E1FB681B68BA68D3181B78FB75FB7D4D
:104BC000222B21D13B68002B02D14FF000035CE186
:104BD000F8683968BA6AFFF717FF38613B69002B3C
:104BE00005D1BA69FB681A604FF0FF334DE1BB692C
:104BF00003F10102FB681B6838694FF00301FFF7FE
:104C00002FFF4FF0000340E1FB7D5C2B40F025813E
:104C1000FB681B6803F101027B689A4280F01D81EA
:104C2000FB681B6803F10102FB681A60FB681B68E4
:104C3000BA68D3181B78A3F12203532B00F2068124
:104C400001A252F823F000BF594E01004D4E010061
:104C50004D4E01004D4E01004D4E01004D4E0100E4
:104C60004D4E01004D4E01004D4E01004D4E0100D4
:104C70004D4E01004D4E01004D4E0100594E0100B8
:104C80004D4E01004D4E01004D4E01004D4E0100B4
:104C90004D4E01004D4E01004D4E01004D4E0100A4
:104CA0004D4E01004D4E01004D4E01004D4E010094
:104CB0004D4E01004D4E01004D4E01004D4E010084
:104CC0004D4E01004D4E01004D4E01004D4E010074
:104CD0004D4E01004D4E01004D4E01004D4E010064
:104CE0004D4E01004D4E01004D4E01004D4E010054
:104CF0004D4E01004D4E01004D4E01004D4E010044
:104D00004D4E01004D4E01004D4E01004D4E010033
:104D10004D4E01004D4E01004D4E01004D4E010023
:104D20004D4E01004D4E01004D4E01004D4E010013
:104D3000594E01004D4E01004D4E01004D4E0100F7
:104D40004D4E01004D4E0100594E01004D4E0100E7
:104D50004D4E01004D4E0100594E01004D4E0100D7
:104D60004D4E01004D4E01004D4E01004D4E0100D3
:104D70004D4E01004D4E0100594E01004D4E0100B7
:104D80004D4E01004D4E0100594E01004D4E0100A7
:104D9000594E0100994D0100FB681B6803F10102A7
:104DA000FB681A604FF00003FB6139E0FB681B6889
:104DB000BA68D3181B782F2B06D9FB681B68BA6812
:104DC000D3181B78392B21D9FB681B68BA68D31814
:104DD0001B78402B06D9FB681B68BA68D3181B7870
:104DE000462B13D9FB681B68BA68D3181B78602B55
:104DF00006D9FB681B68BA68D3181B78662B05D9DF
:104E0000BA69FB681A606FF001033EE0FB681B683B
:104E100003F10102FB681A60FB6903F10103FB6106
:104E2000FB69032B0BDCFB681A687B689A4206D28D
:104E3000FB681B68BA68D3181B78002BB6D1FB68D7
:104E40001B6803F1FF32FB681A6006E0BA69FB6871
:104E50001A606FF0010318E000BFFB681B6803F1E4
:104E60000102FB681A60FB681A687B689A4207D2E5
:104E7000FB681B68BA68D3181B78002B7FF499AEC7
:104E8000BA69FB681A606FF00203184607F1200741
:104E9000BD4680BD80B58CB002AFF860B9607A6065
:104EA0003B60FB685B683B627DE1FB681B68BA683E
:104EB000D3181B78FB77FB7F2C2B00F0EF802C2B7B
:104EC00011DC0D2B00F05E810D2B05DCA3F1090335
:104ED000012B00F23281D8E0202B00F05381222BED
:104EE00000F0AC8029E15D2B46D05D2B05DC3A2B30
:104EF00000F0CC805B2B05D01FE17B2B02D07D2BFB
:104F00003AD01AE13B6A03F101033B623B68002B94
:104F100000F03A81F86839683A6BFFF775FDB861BF
:104F2000BB69002B02D14FF0FF336FE1FB689B6838
:104F3000B3F1FF3F09D0FB689B684FEA03133A685F
:104F4000D318DA6802F10102DA60FB7F7B2B02D111
:104F50004FF0010301E04FF00203BA691370FB68E0
:104F60001B681A46BB695A60FB685B6803F1FF3334
:104F70001A46FB689A6010E13B68002B00F006813E
:104F8000FB7F7D2B02D14FF0010301E04FF00203C4
:104F9000FB75FB685B6803F1FF337B6227E07B6A8C
:104FA0004FEA03133A68D318BB61BB695B68B3F17E
:104FB000FF3F18D0BB699B68B3F1FF3F13D1BB69BA
:104FC0001B78FA7D9A4202D06FF001031EE1FB6864
:104FD0004FF0FF329A60FB681B6803F101031A4629
:104FE000BB699A6006E07B6A03F1FF337B627B6AF0
:104FF000002BD4DA7B6AB3F1FF3F1BD16FF00103C2
:1050000004E17B6A4FEA03133A68D318BB61BB69BA
:105010005B68B3F1FF3F09D0BB699B68B3F1FF3F09
:1050200004D1FB687A6A9A6000BFB6E07B6A03F13C
:10503000FF337B627B6A002BE3DAAEE03B6B0093CD
:10504000F868B9687A683B68FFF7A2FD38613B6988
:10505000002B01DA3B69D9E03B6A03F101033B62B3
:10506000FB689B68B3F1FF3F00F092803B68002B28
:1050700000F08E80FB689B684FEA03133A68D318F0
:10508000DA6802F10102DA6082E07BE0FB685B68CB
:1050900003F1FF331A46FB689A607EE03B68002B01
:1050A00078D0FB689B68B3F1FF3F73D0FB689B68C7
:1050B0004FEA03133A68D3181B78022B6AD0FB68B7
:1050C0009B684FEA03133A68D3181B78012B61D011
:1050D000FB685B6803F1FF337B622AE07B6A4FEA7F
:1050E00003133A68D3181B78022B07D07B6A4FEA68
:1050F00003133A68D3181B78012B16D17B6A4FEA49
:1051000003133A68D3185B68B3F1FF3F0DD07B6A95
:105110004FEA03133A68D3189B68B3F1FF3F04D1F9
:10512000FB687A6A9A6000BF34E07B6A03F1FF3360
:105130007B627B6A002BD1DA2CE03B6B0093F86832
:10514000B9687A683B68FFF7A5FC38613B69002BBA
:1051500001DA3B695AE03B6A03F101033B62FB68F9
:105160009B68B3F1FF3F17D03B68002B14D0FB685E
:105170009B684FEA03133A68D318DA6802F1010218
:10518000DA6009E000BF08E000BF06E000BF04E00D
:1051900000BF02E000BF00E000BFFB681B6803F136
:1051A0000102FB681A60FB681A687B689A4207D2A2
:1051B000FB681B68BA68D3181B78002B7FF475AEA8
:1051C0003B68002B21D0FB685B6803F1FF337B62F7
:1051D00018E07B6A4FEA03133A68D3185B68B3F1AF
:1051E000FF3F0BD07B6A4FEA03133A68D3189B68E2
:1051F000B3F1FF3F02D16FF0020307E07B6A03F1D6
:10520000FF337B627B6A002BE3DA3B6A184607F1C7
:105210002807BD4680BD00BF80B483B000AF786072
:105220007B684FF000021A607B684FF000025A6002
:105230007B684FF0FF329A6007F10C07BD4680BCD7
:10524000704700BF80B485B000AF786039604FF020
:105250000003FB603A684FF07F03C8F2000313407D
:10526000002B05DA03F1FF3363F07F0303F1010341
:10527000FB723B68002B01DA03F17F034FEAE31373
:105280003B603B68002B03DDFB7A63F07F03FB721E
:10529000FB687A68D318FA7A1A70FB6803F1010385
:1052A000FB603B68002BD5DCFB68184607F1140750
:1052B000BD4680BC704700BF80B586B000AF786047
:1052C00039604FF001037B614FF000033B613B68A5
:1052D0004FF000021A604FF0FF33FB603B6903F1AF
:1052E00001033B613B69042B03DD4FF0FF33FB609F
:1052F00020E007F10B027B6810464FF00101984750
:10530000F860FB68012B14D13B681A68FB7A03F044
:105310007F03796901FB03F3D2183B681A607B694C
:105320004FEAC3137B61FB7ADBB25BB2002BD2DBAB
:1053300000E000BF3B69184607F11807BD4680BD75
:1053400080B483B000AF78607B6803F101037B60B9
:105350007B687F2B04DC7B6803F101037B6019E031
:105360007A6843F6FF739A4204DC7B6803F1020318
:105370007B600FE07A684FF6FE73C0F21F039A421B
:1053800004DC7B6803F103037B6003E07B6803F1CB
:1053900004037B607B68184607F10C07BD4680BCA0
:1053A000704700BF80B485B000AF786039604FF0BF
:1053B0000003FB6012E041F6DC63C2F200031B68ED
:1053C00019787A68117003F1010241F6DC63C2F2C8
:1053D00000031A60FB6803F10103FB60FA683B6895
:1053E0009A42E8DB3B68184607F11407BD4680BCCB
:1053F000704700BF80B582B000AF7860396041F679
:10540000DC63C2F200037A681A6045F2A530C0F28C
:1054100001003968FFF750FF0346184607F10807F7
:10542000BD4680BD80B485B000AF78607B681B68E6
:10543000FB60FB681B784FEA0322FB6803F1010362
:105440001B78D318BB607B681B6803F102027B6882
:105450001A60BB68184607F11407BD4680BC704748
:1054600080B485B000AF78607B681B681B78FB73E5
:105470007B681B6803F101027B681A60FB7B18469E
:1054800007F11407BD4680BC704700BF80B483B0ED
:1054900000AF78600B46FB707B681B68FA781A7067
:1054A0007B681B6803F101027B681A6007F10C0737
:1054B000BD4680BC704700BF80B483B000AF786049
:1054C00039607B681A683B68002B01DA03F1FF033F
:1054D0004FEA2323DBB213707B681B6803F10102E0
:1054E0007B681A607B681A6839684FF0FF03C8F25E
:1054F00000030B40002B05DA03F1FF3363F0FF03D9
:1055000003F10103DBB213707B681B6803F1010236
:105510007B681A6007F10C07BD4680BC704700BF6E
:1055200080B584B000AF78603960386821F038F811
:105530000346FB607868F968FFF7BEFF7B681A686E
:10554000FB68104639681A4620F0E0FA7B681A6852
:10555000FB68D2187B681A6007F11007BD4680BD52
:1055600080B584B000AFF860384680E80E007B68F4
:10557000002B14DD7B68F8681946FFF79DFFFB6878
:105580001968BA687B68084611461A4620F0BEFAC8
:10559000FB681A687B68D218FB681A600DE03B68EC
:1055A000002B05D03B68F8681946FFF7B9FF04E007
:1055B000F8684FF00001FFF77FFF07F11007BD46C5
:1055C00080BD00BF80B586B000AFF860B9607A607A
:1055D0004FF000037B617A68BB681B68D31A012B0C
:1055E0001BDDB868FFF71EFF0246FB685A60BB6808
:1055F0001A68FB685B68D2187B689A420DD8BB6852
:105600001A68FB689A60BB681A68FB685B68D21806
:10561000BB681A604FF001037B61FB684FF000022A
:105620001A607B69184607F11807BD4680BD00BFA8
:1056300080B586B000AF07F1040383E807004FF0A0
:1056400000037B617B68002B06D07B68184620F046
:10565000A7FF03467B6101E0BB687B617B6918465D
:1056600007F11807BD4680BD80B586B000AF7860F1
:1056700039604FF000037B614FF00003FB607B68F3
:105680001B68002B0AD07B681B683B617B681B682A
:10569000184620F085FF03467B6105E07B689B6828
:1056A0003B617B685B687B61386820F079FF03466B
:1056B000FB607A69FB689A420BD17B69386939686B
:1056C0001A4620F09DFF0346002B02D14FF0010344
:1056D00001E04FF00003184607F11807BD4680BDF2
:1056E00090B585B000AF78604FF00003FB607B6839
:1056F0001B7A032B03D14FF00C03FB6006E07B68A1
:105700001B7A042B02D14FF00A03FB607B6803F184
:105710000C0393E80700FFF78BFF034603F1020336
:10572000FA68D318FB607B68DB7E002B17D07B68A0
:1057300003F1240393E80700FFF77AFF034603F120
:1057400002047B6803F1300393E80700FFF770FF62
:105750000346E31803F10203FA68D318FB607B6881
:105760001B6C002B03D17B689B6C002B0CD07B68DF
:1057700003F1400393E80700FFF75AFF034603F1E4
:105780000203FA68D318FB607B68DB6C002B03D143
:105790007B685B6D002B0CD07B6803F14C0393E8B6
:1057A0000700FFF745FF034603F10203FA68D31829
:1057B000FB60FB68184607F11407BD4690BD00BFAB
:1057C00090B58BB000AFF860B9607A60FB68FB61A0
:1057D0004FF00003BB614FF000037B614FF000030B
:1057E0003B624FF0FF337B627868FFF779FF3862E6
:1057F000386AFFF7A5FD0246BB689A4203DD6FF0E9
:1058000001037B62D7E04FF000033B763B7E4FF015
:10581000010262F307133B763B7E07F11C02104640
:105820001946FFF733FEFC69FB691846396AFFF732
:1058300009FD0346E318FB617B681B7A042B10D13A
:1058400007F11C03184642F20061C0F20401FFF7A1
:1058500067FE07F11C0318464FF00401FFF716FE20
:105860000FE007F11C03184642F20861C0F2040180
:10587000FFF756FE07F11C0318464FF00301FFF730
:1058800005FE4FF000033B757B689B7E03F0010330
:10589000DAB23B7D62F341033B757B68DB7E002B14
:1058A0000CBF00230123DAB23B7D62F382033B7518
:1058B0003B7D03F00403DBB2002B13D07B6893F82D
:1058C0003D3003F00303DAB23B7D62F3C4033B7562
:1058D0007B6893F83C3003F00103DAB23B7D62F35E
:1058E00045133B757B681B6C002B03D17B689B6C5D
:1058F000002B03D03B7D43F080033B757B68DB6C62
:10590000002B03D17B685B6D002B03D03B7D43F004
:1059100040033B753B7D07F11C0210461946FFF71B
:10592000B5FD7B681B8B07F11C0210461946FFF77B
:10593000C3FD07F11C027B68104603F10C030ECB7C
:10594000FFF70EFE7B68DB7E002B11D007F11C02F7
:105950007B68104603F124030ECBFFF701FE07F12D
:105960001C027B68104603F130030ECBFFF7F8FDF5
:105970003B7D23F07F03DBB2002B08D007F11C0234
:105980007B68104603F140030ECBFFF7E9FD3B7D3A
:1059900003F04003DBB2002B08D007F11C027B6848
:1059A000104603F14C030ECBFFF7DAFDFB691A46F4
:1059B000FB68D31A7B627B6A184607F12C07BD4649
:1059C00090BD00BF90B58BB000AFF860B9607A6051
:1059D0003B604FF00003FB617B68BB614FF000034D
:1059E0003B624FF000037B624FF000033B6107F125
:1059F00018031846FFF734FD03463B773B7F23F03F
:105A00000F03DBB2202B2FD1BC69BA6907F1140355
:105A100010461946FFF7EEFC78627B6AE318BB611B
:105A2000BA697B69D3183B623A6ABB69D31A012B06
:105A30001CDD07F118031846FFF712FD03463B74FF
:105A40003B69C3F3C013DBB21A46FB681A7007F157
:105A500018031846FFF704FD03461A46BB681A7080
:105A60004FF001037B6202E000BF00E000BF7B6AF1
:105A7000184607F12C07BD4690BD00BF90B589B010
:105A800000AFF860B9601346FB714FF00003BB61D3
:105A90004FF0FF33FB61FB687B61BB68012B03DCCC
:105AA0006FF00103FB6120E04FF000033B76FB79D0
:105AB00003F00F03DAB23B7E62F307133B763B7EC3
:105AC00007F1140210461946FFF7E0FC7C697B6978
:105AD00018464FF00001FFF7B5FB0346E3187B6162
